:100000000C9432060C945A060C945A060C945A0618
:100010000C945A060C945A060C945A060C945A06E0
:100020000C945A060C945A060C945A060C945A06D0
:100030000C945A060C945A060C945A060C945A06C0
:100040000C948C080C945A060C945A060C945A067C
:100050000C945A060C945A060C945A060C945A06A0
:100060000C94AE090C945A06000000000000000039
:100070000000000000000000000000000000000080
:100080000000000000000000000000000000000070
:100090000000000000000000000000000000000060
:1000A0000000000080808080C0C0C0C06060603000
:1000B0003030303818181800000000000000000030
:1000C000000000F8FCFCFC3C3C3C3C3C3C3C3C3C28
:1000D000180000F8FCFCFCFCE00000000000000040
:1000E00000E0FCFCFCFCF8000000F0F8381C1C1CD4
:1000F0001E1E1E1E1B1B1B1B1919191918989898D8
:1001000098989898981818181838F8F00000000077
:1001100000000000000000FFFFFFFF7070707070B3
:1001200070706000000000FFFFFFF0073FFFFCE081
:100130000000C0F8FF3F07F0FFFFFF000000FFFFD7
:10014000000000C6C6000000000000000000FE67BE
:10015000257524762476242675276CF80000FFFF89
:100160000000000000000000000000FFFFFFFF0093
:100170000000000000000000000000FFFFFFFF0083
:100180000001073F7F7E3F07010000FFFFFFFF00E8
:100190000000FFFFC0808080808080808080808021
:1001A000808081878E8B9993999393998B87838194
:1001B00080C0FFFF0000000000000000000000F809
:1001C000F91918F8F800F8F81818B8F0E000F8F87D
:1001D000816131F8F800F0F85858787000F8F8713B
:1001E000C1C170F8F800F8F86161F9F901F9F9C1D5
:1001F000E171F9F901F9F961F1B9090101010101AF
:1002000001010101010101000000000000000000E7
:10021000000000030300000303001F1F030303018A
:1002200000000303010000030300010303030301B3
:1002300000030300010100030300030300000303A4
:100240000003030100000303000303000103030292
:10025000000000000000000000000000000000009E
:100260000000000800020100000304070000000075
:1002700000000000FFFF11111100FFFF0FFCC0FC88
:100280000FFFFF000000FCFC0404FCFC00FCFC88E9
:1002900004FCF800FCFCC038FCFC00F8FC2424BC86
:1002A000B800FCFC30C030FCFC00FCFC2020FCFC56
:1002B00000FCFCC038FCFC00FCFC20F8CC04000076
:1002C000000000000000000001010000000001012A
:1002D0000000010000010100000001010000010117
:1002E00000070700010100000101000001010000FA
:1002F00001010101000001010001000101000101F3
:1003000000000101000101000001010001010000E5
:1003100001010000000000000000000000000000DB
:1003200000000000000000000000000000000000CD
:1003300000000000000000000000000000000000BD
:1003400000000000000000000000000000000000AD
:10035000000000000000000000000000000000009D
:10036000000000000000000000000000000000008D
:10037000C0408000C0404000C0408000804040003D
:10038000C00000C0008040C00080000000000000ED
:10039000000000000000000000000000000000005D
:1003A000000000000000000000000000000000004D
:1003B000000000000000000000000000000000003D
:1003C00000000000FFFDFBF8FFFDFCF8FFFAF9F864
:1003D000FBFCFCF8FFFAF9FFF8FDFAFFF8FCF8F86F
:1003E000F8F8F8F8F8F8F8F8F8F8F8F8F8F8F8F88D
:1003F000F8F8F8F8F8F8F8F8F8F8F8F8F8F8F8F87D
:10040000F8F8F8F8F8F8F8F8F8F8F8F8F8F8F8F86C
:10041000F8F8F8F8F8F8F8F80406205F0000000390
:10042000A000C00C00F94F806BEB00988C8052A5A7
:100430008003000001C88089C00050850021C200EF
:10044000084000208200002000188C00FA2F804B0A
:10045000E0805A66808AA500E08F80EAAB0072A92E
:10046000009A8C00FAAF804AA700014000094000C2
:1004700021488051450089420042660072A6807A78
:100480008780FAA500722500FA2700FAA880FA886A
:1004900000722B00F88F808BE8808BE800F88D804D
:1004A000F82080F90F80F9CF80722700FA8400725B
:1004B0002740FA85804AA90083E800F02F00E06E0B
:1004C00000F0EF00D88D80C0EC009AAC8003E8808B
:1004D000C081808BE00042040008208002040031CB
:1004E0002380F92300312480312F8031628023EA78
:1004F00000255380F9038002E00006E000F8428006
:1005000003E0007987803903803123007D230031A7
:1005100027C078840029400043E40070270060660B
:100520000070670048C48074578059E68023E880D3
:100530000360008BE200610C00060820E000000070
:100540000000000000002F0000000007000700006E
:10055000147F147F1400242A7F2A120023130864B6
:100560006200364955225000000503000000001CBF
:10057000224100000041221C000014083E08140023
:1005800008083E0808000000A060000008080808ED
:1005900008000060600000002010080402003E51C6
:1005A00049453E0000427F400000426151494600FB
:1005B0002141454B31001814127F10002745454555
:1005C00039003C4A494930000171090503003649A8
:1005D00049493600064949291E0000363600000008
:1005E00000563600000008142241000014141414B0
:1005F000140000412214080002015109060032498A
:1006000059513E007C1211127C007F494949360045
:100610003E41414122007F4141221C007F4949491E
:1006200041007F09090901003E4149497A007F08DC
:1006300008087F0000417F4100002040413F010049
:100640007F08142241007F40404040007F020C029E
:100650007F007F0408107F003E4141413E007F093A
:10066000090906003E4151215E007F091929460013
:1006700046494949310001017F0101003F404040A6
:100680003F001F2040201F003F4038403F006314C0
:1006900008146300070870080700615149454300CA
:1006A000007F414100AA55AA55AA55000041417F4B
:1006B00000000402010204004040404040000003EA
:1006C000050000002054545478007F48444438000A
:1006D000384444442000384444487F00385454543B
:1006E0001800087E0901020018A4A4A47C007F0859
:1006F0000404780000447D4000004080847D0000B8
:100700007F102844000000417F4000007C04180452
:1007100078007C0804047800384444443800FC2401
:100720002424180018242418FC007C080404080061
:10073000485454542000043F444020003C40402092
:100740007C001C2040201C003C4030403C004428E1
:10075000102844001CA0A0A07C004464544C440019
:1007600000107C8200000000FF00000000827C106E
:10077000000000060909060000000000000000005B
:100780000000000000000000000000000000000069
:100790000000000000000000000000000000000059
:1007A0000000000000000000000000000000000049
:1007B0000000000000000000000000000000000039
:1007C0000000000000000000000000000000000029
:1007D0000000000000000000000000000000000019
:1007E0000000000000000000000000000000000009
:1007F00000000000000000000000000000000000F9
:1008000000000000000000000000000000000000E8
:1008100000000000000000000000000000000000D8
:1008200000000000000000000000000000000000C8
:1008300000000000000000000000000000000000B8
:1008400000000000000000000000000000000000A8
:100850000000000000000000000000000000000098
:100860000000000000000000000000000000000088
:100870000000000000000000000000000000000078
:100880000000000000000000000000000000000068
:100890000000000000000000000000000000000058
:1008A0000000000000000000000000000000000048
:1008B0000000000000000000000000000000000038
:1008C0000000000000000000000000000000000028
:1008D0000000000000000000000000000000000018
:1008E0000000000000000000000000000000000008
:1008F00000000000000000007E1111117E007F4901
:10090000494930007F49494936007F010101030010
:10091000603E21217E007F494949410077087F08D8
:1009200077004149494936007F2010087F007F2029
:1009300013087F007F0814224100403E01017F0020
:100940007F020C027F007F0808087F003E41414182
:100950003E007F0101017F007F1111110E003E4119
:100960004141220001017F010100074848483F0042
:100970001E217F211E006314081463003F40407F46
:10098000C0000F1010107F007F407F407F007F402D
:100990007F40FF00017F444438007F4444387F009B
:1009A0007F4444443800224949493E007F083E4183
:1009B0003E00462919097F002054545478003C4ACF
:1009C0004A4931007C54545428007C0404040C002F
:1009D0006038243C60003854545418006C107C106B
:1009E0006C004454545428007C4020107C007C400F
:1009F00023107C007C1010284400403804047C0044
:100A00007C0810087C007C1010107C0038444444A2
:100A100038007C0404047C007C141414080038445E
:100A20004444480004047C0404001C5050503C0022
:100A30001824FC2418004428102844007C40407CE2
:100A4000C0000C1010107C007C407C407C007C407E
:100A50007C40FC00047C505020007C5050207C00E6
:100A60007C50505020002844545438007C103844A6
:100A70003800483414147C0102040810204080011E
:100A800002040810200102040810200000000025C4
:100A90000028002B000404040404040404020202DD
:100AA00002020203030303030309082711210321A0
:100AB0000020002000202103310020002000202100
:100AC00003310038002000202103310038003C00B1
:100AD000302103310038003C003E000E111F001190
:100AE0000E00003E0408043E000000001C222222EA
:100AF00014000000001F0501001F0204021F1F1F39
:100B000000000000000000101000000000000000C5
:100B10000015151515151500000C102D0D00000001
:100B200080808080808000000000000103030303B8
:100B300003030100000000000000000000000000AE
:100B4000000000000000C0C0000000000000000025
:100B50000000000000000000000000000000000095
:100B6000000000000000FC7A0606060606067AFC75
:100B700000007EBCC0C0C0C0C0C0BC7E0000000081
:100B800000000000000078FC0000000000000000F1
:100B900000003C7E000000028686868686867AFCFF
:100BA00000007EBDC3C3C3C3C3C3810000000002F5
:100BB0008686868686867AFC00000081C3C3C3C30E
:100BC000C3C3BD7E0000FC7880808080808078FC7C
:100BD000000000010303030303033D7E0000FC7AD1
:100BE000868686868686020000000081C3C3C3C352
:100BF000C3C3BD7E0000FC7A868686868686020098
:100C000000007EBDC3C3C3C3C3C3BD7E00000002DA
:100C10000606060606067AFC00000000000000003A
:100C200000003C7E0000FC7A8686868686867AFCFA
:100C300000007EBDC3C3C3C3C3C3BD7E0000FC7A36
:100C40008686868686867AFC00000081C3C3C3C37D
:100C5000C3C3BD7E0000000000240027002A00005E
:100C6000F31ADB1A11241FBECFEFD8E0DEBFCDBFD1
:100C700025E0A8EDB1E001C01D92A235B207E1F771
:100C800011E0A0E0B1E0E6ECF4E402C005900D92C2
:100C9000A83DB107D9F716E0C1E3D6E004C021971B
:100CA000FE010E948B1DC033D107C9F70E94451871
:100CB0000C9456220C9400003FB7F89480912D02BA
:100CC00090912E02A0912F02B091300226B5A89BE0
:100CD00005C02F3F19F00196A11DB11D3FBFBA2FCE
:100CE000A92F982F8827820F911DA11DB11DBC012E
:100CF000CD0142E0660F771F881F991F4A95D1F7F3
:100D000008952FB7F8946091290270912A0280917A
:100D10002B0290912C022FBF08950895CF92DF925D
:100D2000EF92FF920F931F93CF93DF936C017A01A1
:100D30008B01C0E0D0E0CE15DF0589F0D8016D91C0
:100D40008D01D601ED91FC910190F081E02DC6015D
:100D50000995892B11F47E0102C02196ECCFC701C1
:100D6000DF91CF911F910F91FF90EF90DF90CF9087
:100D7000089585ED8093BC008091BC0084FDFCCF7C
:100D800010925702089540910302262F30E0240F5D
:100D9000311D21323105DCF4209157022430C9F491
:100DA000FC0180E090E0861758F430910302219115
:100DB000DC01AF51BE4FA30FB11D2C930196F3CFB1
:100DC00080910302680F6093030280E0089581E040
:100DD000089582E008950895E0912D0580912C05F5
:100DE000E81730F4F0E0E25DFA4F808190E008957A
:100DF0008FEF9FEF089590912D0580912C05981706
:100E000050F4E92FF0E0E25DFA4F208130E09F5F7F
:100E100090932D0502C02FEF3FEFC90108958091F7
:100E20002C0590E020912D05821B91090895CF9209
:100E3000DF92EF92FF920F931F93CF93DF937C018A
:100E4000262F972F8A0180915802882391F0C62F70
:100E5000D72F6E01C40ED51ECC15DD0571F069913A
:100E6000D701ED91FC910190F081E02DC70109952A
:100E7000F3CF642F822F0E94C306C801DF91CF9168
:100E80001F910F91FF90EF90DF90CF900895CF9337
:100E9000DF931F92CDB7DEB76983209158022223DA
:100EA000D1F020917B02203240F021E030E0FC01C3
:100EB0003383228380E090E015C080915902E82FAF
:100EC000F0E0E65AFD4F998190838F5F809359023D
:100ED00080937B0205C061E0CE0101960E94C306AB
:100EE00081E090E00F90DF91CF910895089580E028
:100EF00090E008950F931F93CF93DF93EC010E942E
:100F000081060091D9011091DA012091DB01309125
:100F1000DC01AB01BC01401B510B620B730BCE011A
:100F2000DD0FAA0BBB0B84179507A607B70760F464
:100F30000E9481066093D9017093DA018093DB01EE
:100F40009093DC0181E001C080E0DF91CF911F919F
:100F50000F9108950F931F93CF93DF93EC01888136
:100F60009981009729F02A813B812617370788F459
:100F70008B016F5F7F4F0E94BE1E009761F09983C7
:100F800088831B830A832C813D81232B11F4FC0170
:100F9000108281E001C080E0DF91CF911F910F911D
:100FA0000895CF93DF93EC0188819981009711F028
:100FB0000E94261E198218821D821C821B821A82A0
:100FC000DF91CF910895EF92FF920F931F93CF93EC
:100FD000DF93EC017B018A01BA010E94AA0781110B
:100FE00004C0CE010E94D10707C01D830C83B70146
:100FF000888199810E949F1FCE01DF91CF911F911F
:101000000F91FF90EF9008950E94881F90E0FC01DF
:10101000E05AFD4F3491FC01E958F54F2491FC0151
:10102000EB56F54FE491EE2309F43BC0332339F13D
:10103000333091F038F43130A9F0323001F584B515
:101040008F7D12C0373091F03830A1F03430B9F4D0
:10105000809180008F7D03C0809180008F77809386
:1010600080000DC084B58F7784BD09C08091B00029
:101070008F7703C08091B0008F7D8093B000F0E047
:10108000EE0FFF1FE557F54FA591B4918FB7F89478
:10109000EC91611103C020952E2301C02E2B2C93BF
:1010A0008FBF08958F929F92AF92BF92CF92DF929F
:1010B000EF92FF926B017C010E945C064B015C0188
:1010C000C114D104E104F104F1F00E945C06DC01DA
:1010D000CB0188199909AA09BB09883E9340A1054B
:1010E000B10570F321E0C21AD108E108F10888EED9
:1010F000880E83E0981EA11CB11CC114D104E10428
:10110000F10419F7DDCFFF90EF90DF90CF90BF9003
:10111000AF909F908F9008951F920F920FB60F92ED
:1011200011242F933F938F939F93AF93BF938091FD
:10113000290290912A02A0912B02B0912C023091A9
:10114000280223E0230F2D3720F40196A11DB11DA5
:1011500005C026E8230F0296A11DB11D2093280289
:101160008093290290932A02A0932B02B0932C0221
:1011700080912D0290912E02A0912F02B091300209
:101180000196A11DB11D80932D0290932E02A09374
:101190002F02B0933002BF91AF919F918F913F91F9
:1011A0002F910F900FBE0F901F901895EF92FF9206
:1011B0000F931F93CF93DF93FC0124813581611539
:1011C000710511F480E019C041155105A9F07B01AA
:1011D000EC018A01020F131FB8010E94AA0788239D
:1011E00089F3288139818C819D81B701820F931FFA
:1011F0000E949F1F1D830C8381E0DF91CF911F917F
:101200000F91FF90EF900895CF93DF9300D0CDB76B
:10121000DEB769831A8241E050E0BE016F5F7F4F05
:101220000E94D6080F900F90DF91CF910895CF9331
:10123000DF93EC016115710559F0FB01019000206D
:10124000E9F73197AF01461B570B0E94E30702C035
:101250000E94D107CE01DF91CF910895CF93DF9304
:10126000EC01FB018617970761F0608171816115C0
:10127000710529F0448155810E94E30702C00E9454
:10128000D107CE01DF91CF910895FC01808191813A
:101290000C94261EFC011182108213821282158288
:1012A00014820C942E09FC01118210821382128286
:1012B000158214826115710551F0FB010190002027
:1012C000E9F73197AF01461B570B0C94E3070895DC
:1012D000BF92CF92DF92EF92FF920F931F93CF9323
:1012E000DF937C016B018A01E9012417350720F4A3
:1012F000812F8901C42FD82F6DEC71E0C7010E94A6
:101300005309D60114968D919C91159708171907CA
:10131000D0F48C179D0708F4EC01D601ED91FC91F7
:101320001197EC0FFD1FB08010824D915C91BA01B6
:10133000600F711FC7010E941709D601ED91FC9142
:10134000EC0FFD1FB082C701DF91CF911F910F916C
:10135000FF90EF90DF90CF90BF9008951F920F9273
:101360000FB60F9211242F933F934F935F936F9378
:101370007F938F939F93AF93BF93EF93FF9380914E
:10138000B900887F803609F49CC068F5883209F47A
:101390005BC090F4803109F454C038F4882309F418
:1013A000F6C0883009F44DC0F6C0883109F44CC04D
:1013B000803209F45DC0EFC0803409F468C048F49D
:1013C000803309F455C0883309F0E5C08093550295
:1013D000D8C0803509F44FC0883509F45DC0883421
:1013E00009F0D9C0D6C0883909F4C7C0A8F4883735
:1013F00009F467C038F4883609F463C0803709F40B
:1014000060C0C9C0883809F4B8C0803909F45FC029
:10141000803809F0C0C05BC0803B09F486C038F456
:10142000803A09F466C0883A09F47FC0B4C0803CB1
:1014300009F4A7C0883C09F4A4C0883B09F48AC019
:10144000AAC08091320210C0909154028091530240
:10145000981770F5E091540281E08E0F809354024A
:10146000F0E0ED5CFD4F80818093BB0085EC86C091
:10147000809355028EC0E091540281E08E0F8093DC
:1014800054028091BB00F0E0ED5CFD4F80839091B1
:101490005402809153026EC0E091540281E08E0F9D
:1014A000809354028091BB00F0E0ED5CFD4F80839F
:1014B0008091560281116DC081E08093310284EAEF
:1014C00061C083E08093570210922702CFCF8091B2
:1014D0002702803208F051C0E091270281E08E0F90
:1014E000809327028091BB00F0E0E95FFD4F80838D
:1014F000BDCF85EC8093BC001092570280912702EB
:10150000803230F4E0912702F0E0E95FFD4F108275
:101510006091270270E0E0910502F091060287E0F9
:1015200092E009951092270236C084E0809357021A
:101530001092040210920302E0910102F091020263
:10154000099580910302811105C081E08093030217
:101550001092E101E091040281E08E0F8093040279
:10156000F0E0EF51FE4F80818093BB009091040228
:1015700080910302981708F479CF85E88093BC0026
:101580000AC085EC8093BC001092570204C01092F0
:1015900055020E94B906FF91EF91BF91AF919F91C3
:1015A0008F917F916F915F914F913F912F910F900C
:1015B0000FBE0F901F9018950F931F93CF93DF933B
:1015C000EC010E9481060091DD011091DE01209165
:1015D000DF013091E001AB01BC01401B510B620BFC
:1015E000730BCE01DD0FAA0BBB0B84179507A60763
:1015F000B70760F40E9481066093DD017093DE01FD
:101600008093DF019093E00181E001C080E0DF91F1
:10161000CF911F910F910895AF92BF92CF92DF9219
:10162000EF92FF920F931F93CF93DF93CDB7DEB767
:101630002E970FB6F894DEBF0FBECDBF6C017B01B5
:101640006DEC71E00E94530980E38D871E86D701FF
:101650001496AD90BC90159720E030E02A153B051C
:101660000CF084C0F701448155812417350728F414
:101670000190F081E02D309729F41092D801E8ED27
:10168000F1E002C0E20FF31F908189010F5F1F4F4D
:101690009F3B08F440C0903D19F0913DE9F03BC0FC
:1016A0000417150728F4D7018D919C91009729F410
:1016B0001092D801E8EDF1E003C0FC01E00FF11F4A
:1016C000908189010E5F1F4F913811F180E7890FDA
:1016D000803308F5915D1FC00417150728F4F70142
:1016E00080819181009729F41092D801E8EDF1E012
:1016F00003C0FC01E00FF11F908189010E5F1F4FB5
:10170000913941F080E8890F803128F4915903C064
:1017100098EA01C097EB9D87BE01635F7F4FCE01C2
:1017200007960E945309B601CE0101960E944A090C
:101730004B855C856F817885CE0101960E94D60825
:10174000811104C0CE0101960E94D107BE016F5FD6
:101750007F4FC6010E942E09CE0101960E944509C5
:10176000CE0107960E944509980178CFC6012E96B2
:101770000FB6F894DEBF0FBECDBFDF91CF911F91A2
:101780000F91FF90EF90DF90CF90BF90AF900895B2
:10179000EF92FF920F931F93CF93DF93CDB7DEB7F6
:1017A0002C970FB6F894DEBF0FBECDBF40E450E0DB
:1017B0006AE070E08AE090E00E94181140E450E096
:1017C00063E270E08AE090E00E94181149E150E085
:1017D0006AE070E08AE090E00E94F1104AE150E097
:1017E0006AE070E08AE490E00E94F1108BE0E82E5D
:1017F000F12C0BE010E0B801C7010E948E0D0F5FC5
:101800001F4F02321105B9F78FEFE81AF80A8AE480
:10181000E816F10471F789E395E00E94011068E190
:1018200071E0CE0107960E945309BE01695F7F4FA8
:10183000CE0101960E940C0B44E150E06EE077E28D
:10184000CE0101960E94B30FCE0101960E94450978
:10185000CE0107960E9445090E94320D62E370E0B6
:1018600080E090E00E9452080E944D0D2C960FB629
:10187000F894DEBF0FBECDBFDF91CF911F910F91C6
:10188000FF90EF90089589EA9AE00E94011040E0ED
:1018900050E06CE470E086E291E00E94470E4AE07E
:1018A00050E060E470E085EB91E00E94470E44E177
:1018B00050E062E070E088E291E00E94470E4CE167
:1018C00050E062E070E08AE291E00E94470E0E94E0
:1018D000320D62E370E080E090E00E9452080C94C8
:1018E0004D0DFC0124813581FB0144815581241774
:1018F000350721F5FC0180819181FB0160817181B7
:10190000009719F061157105A1F46115710549F091
:10191000232BB1F0FB01808190E091958195910995
:101920000AC0009769F0232B59F0FC01808190E0F8
:1019300002C00E94961F21E0892B19F020E001C00F
:1019400021E081E0822708958435910538F56033E0
:10195000710520F5FB01E770FF2721E030E001C0B1
:10196000220FEA95EAF7209533E0759567953A9549
:10197000E1F734E5369FF001379FF00D11248E0F0B
:101980009F1FFC01E056FD4F80E090E08417950713
:101990002CF43081322331930196F8CF0895909141
:1019A0009602E0919002F09191022081422F50E046
:1019B000292F30E020953095242335232083E09192
:1019C0008C02F0918D0290919402208161110BC0E4
:1019D000422F50E0292F30E02095309524233523E5
:1019E000208348E003C0922B9083FBCFE0918A02D2
:1019F000F0918B0290919302208187FF03C0922B7C
:101A0000908309C0622F70E0292F30E02095309537
:101A1000262337232083880F90919202E091880239
:101A2000F09189022081622F70E0292F30E020950B
:101A30003095262337232083000090919202E09175
:101A40008802F09189022081922B9083415071F697
:101A500080919602E0919002F09191029081892B01
:101A600080830895CF93DF9380919804811112C0F1
:101A700060E080E40E94CF0C60E080E80E94CF0C20
:101A8000C0EAD2E061E089910E94CF0C84E0C839BD
:101A9000D807C1F7DF91CF9108951092980460E0C4
:101AA00081E20E94CF0C8091990460E080680E94DE
:101AB000CF0C60E086E00E94CF0C60E083E10E94E2
:101AC000CF0C60E080E20E94CF0C60E08CE00E94CE
:101AD000CF0C0C94320D84359105F8F46033710508
:101AE000E0F49B0143E0369527954A95E1F744E5FC
:101AF000429FF001439FF00D11248E0F9F1FFC01A8
:101B0000E857FD4F6770772781E090E001C0880FAC
:101B10006A95EAF7908D892B808F08958435910519
:101B200000F560337105E8F49B0143E03695279595
:101B30004A95E1F744E5429FF001439FF00D1124DF
:101B40008E0F9F1FFC01E857FD4F6770772781E0DC
:101B500090E001C0880F6A95EAF78095908D8923FF
:101B6000808F0895CF92DF92EF92FF920F931F9391
:101B7000CF93DF938435910598F46033710580F439
:101B80006A017B018C01C0E0D0E0CC15DD0544F496
:101B9000BE016E0D7F1DC8010E948E0D2196F5CFEE
:101BA000DF91CF911F910F91FF90EF90DF90CF9039
:101BB0000895AF92BF92CF92DF92EF92FF920F9370
:101BC0001F93CF93DF938C01EB01681779072CF4F7
:101BD000982F812F8B01C92FD82F7E01E01AF10A8F
:101BE00085E0E816F1040CF447C058018FEFA81AFD
:101BF000B80A6DE070E0C5010E948E0D6E0181E0B3
:101C0000C81AD1086DE070E0C6010E948E0D67E130
:101C100070E0C5010E948E0D67E170E0C6010E9470
:101C20008E0D83E0E81AF108680182E0C80ED11C2D
:101C3000A7016CE070E0C6010E94A40CA70168E156
:101C400070E0C6010E94A40C49E050E06EE070E034
:101C5000C8010E94B20D49E050E06EE070E0CE0194
:101C6000DF91CF911F910F91FF90EF90DF90CF9078
:101C7000BF90AF900C94B20DDF91CF911F910F9157
:101C8000FF90EF90DF90CF90BF90AF9008952F928C
:101C90003F924F925F926F927F928F929F92AF92FC
:101CA000BF92CF92DF92EF92FF920F931F93CF9349
:101CB000DF93CDB7DEB728970FB6F894DEBF0FBE1F
:101CC000CDBF78876F831A01FC0101900020E9F7EE
:101CD00031979F01281B390B3C832B836F30774250
:101CE00081F440919B026B817C81469F9001479FCC
:101CF000300D112444E550E0DA01A21BB30BB88784
:101D0000AF832F8138852E303742B1F440919B024A
:101D10006B817C81469F9001479F300D112444E5E3
:101D200050E0421B530B57FF02C04F5F5F4F9A01B9
:101D30003595279538872F839E838D83C12CD12C91
:101D40002B813C81C216D3060CF0F4C090919B020B
:101D50009C9D80019D9D100D11242F813885020FBF
:101D6000131FAD81BE812D91BE83AD8380919C02F6
:101D7000582F577030E040919D0251116EC08695EA
:101D800086958695241B3109989FC0011124289FB0
:101D9000A001299F500D389F500D11249A012C5FEE
:101DA0003F4F3A8329834101A12CB12C80919C02A1
:101DB00086958695869590E0A816B9060CF0B6C073
:101DC00049805A80380180919B0290E09301201B4A
:101DD000310B28173907D4F5E12CF12C80919B02A7
:101DE0008A9DF0018B9DF00D1124E40DF51D80916D
:101DF000990290919A02E80FF91FE491F0E00E2CFD
:101E000002C0F595E7950A94E2F780919F02B70129
:101E1000680D791DE0FF03C0811103C006C0811168
:101E200004C0C3010E948E0D03C0C3010E946B0D4C
:101E30003FEFE31AF30A48E0E416F10479F66FEF96
:101E4000661A760A7FEF471A570ABDCF8FEFA81A96
:101E5000B80A98E0890E911CA9CF241B3109989FDC
:101E6000C001112443E0959587954A95E1F7289F95
:101E70005001299FB00C389FB00C1124A4E0AA0E89
:101E8000B11CE0919902F0919A02EA0DFB1DE491D8
:101E90004E2E512C380157E0852E912C80919B02BB
:101EA00090E09301201B310B281739070CF03EC03E
:101EB000710180919C0290E0970122193309281743
:101EC000390784F520919F02C201082C02C0959524
:101ED00087950A94E2F7B70180FF04C0C30121117E
:101EE00004C006C0C301211103C00E948E0D02C0B0
:101EF0000E946B0DB1E08B1A910897FE0FC0EFEFB7
:101F0000AE1ABE0AE0919902F0919A02EA0DFB1D09
:101F1000E4914E2E512C87E0882E912CFFEFEF1A82
:101F2000FF0AC7CF2FEF621A720AB8CF3FEFC31A6A
:101F3000D30A06CF28960FB6F894DEBF0FBECDBFEA
:101F4000DF91CF911F910F91FF90EF90DF90CF9095
:101F5000BF90AF909F908F907F906F905F904F90C9
:101F60003F902F9008958F929F92AF92BF92CF9201
:101F7000DF92EF92FF920F931F93CF93DF93CDB732
:101F8000DEB75B014A01CDB6DEB6FC0104811581E6
:101F900098012F5F3F4F4DB75EB7421B530B0FB6F3
:101FA000F8945EBF0FBE4DBFEDB7FEB731967F010F
:101FB000232B81F0309771F00115110551F0FC01D0
:101FC00060817181A801C7010E94A61FF701E00F7F
:101FD000F11F1082A401B501C7010E94470E0FB680
:101FE000F894DEBE0FBECDBEDF91CF911F910F9151
:101FF000FF90EF90DF90CF90BF90AF909F908F9029
:102000000895A8E8B2E052969C938E935197FC01F4
:10201000249153962C9353973196E4915496EC93D4
:102020005497FC013296E4915596EC935597FC0138
:102030003396849156968C93569757961C92089592
:10204000CF92DF92EF92FF920F931F93CF93DF9384
:10205000CDB7DEB72C970FB6F894DEBF0FBECDBF5D
:102060006C01E12CF12C05E210E0B801C7010E94DF
:102070006B0D0F5F1F4F00331105B9F78FEFE81A93
:10208000F80A83E5E816F10471F789E395E00E9408
:10209000011081E080939F02B601CE0107960E9455
:1020A0004A09BE01695F7F4FCE0101960E940C0B69
:1020B00047E250E06EE077E2CE0101960E94B30F56
:1020C000CE0101960E944509CE0107960E9445095E
:1020D00010929F020E94320D62E370E080E090E077
:1020E0000E9452080E944D0D2C960FB6F894DEBF48
:1020F0000FBECDBFDF91CF911F910F91FF90EF9059
:10210000DF90CF9008953F924F925F926F927F92AF
:102110008F929F92AF92BF92CF92DF92EF92FF92F7
:102120000F931F93CF93DF937C018B01C0E0D0E02E
:1021300034E5332E48E0442E512CCC24C394D12CCA
:10214000C017D107A4F5CE01D7FD079623E09595DA
:1021500087952A95E1F7389E5001399EB00C1124DD
:10216000CE01B2010E94221D460102C0880C991CBA
:102170008A95E2F7612C712CF301EA0DFB1DEE0D3F
:10218000FF1DE491F0E0E821F921BE01C301EF2B2E
:1021900019F00E946B0D02C00E948E0D8FEF681A1D
:1021A000780A84E56816710439F72196C9CFDF9162
:1021B000CF911F910F91FF90EF90DF90CF90BF9044
:1021C000AF909F908F907F906F905F904F903F90D7
:1021D0000895E0EAF2E0119284E0E839F807D9F7CF
:1021E0000895CF92DF92EF92FF920F931F93CF93B8
:1021F000DF938435910598F46033710580F46A01AA
:102200007B018C01C0E0D0E0CC15DD0544F4BE01BB
:102210006E0D7F1DC8010E946B0D2196F5CFDF91D9
:10222000CF911F910F91FF90EF90DF90CF90089585
:102230008435910528F56033710510F5FB01E770D1
:10224000FF2721E001C0220FEA95EAF733E07595F8
:1022500067953A95E1F734E5369FF001379FF00D29
:1022600011248E0F9F1FFC01E056FD4F80E090E08F
:10227000841795072CF43081322B31930196F8CFD7
:102280000895AF92BF92CF92DF92EF92FF920F9399
:102290001F93CF93DF938C01EB01681779072CF420
:1022A000982F812F8B01C92FD82F7E01E01AF10AB8
:1022B00085E0E816F1040CF447C058018FEFA81A26
:1022C000B80A6DE070E0C5010E946B0D6E0181E0FF
:1022D000C81AD1086DE070E0C6010E946B0D67E17D
:1022E00070E0C5010E946B0D67E170E0C6010E94BD
:1022F0006B0D83E0E81AF108680182E0C80ED11C7A
:10230000A7016CE070E0C6010E941811A70168E106
:1023100070E0C6010E94181149E050E06EE070E0E4
:10232000C8010E94F11049E050E06EE070E0CE017B
:10233000DF91CF911F910F91FF90EF90DF90CF90A1
:10234000BF90AF900C94F110DF91CF911F910F913E
:10235000FF90EF90DF90CF90BF90AF900895CF9314
:10236000C82F89E395E00E94011064E270E089E0E3
:1023700090E0CC2349F00E94411168E470E087E2CC
:1023800090E00E94D90D08C00E94D90D68E470E069
:1023900087E290E00E9441110E94320D62E370E0FA
:1023A00080E090E00E945208CF910C944D0DCF93A5
:1023B000DF93CDB7DEB72C970FB6F894DEBF0FBE14
:1023C000CDBF80912A0590912B058330910509F4AA
:1023D00072C04CF481309105D9F1029709F0C7C061
:1023E0006FE371E0B8C08530910509F47EC00CF44C
:1023F00065C0069709F0BBC00E94E91088E194E02F
:102400000E94011063E270E084E792E00E94831072
:102410006BE971E0CE0107960E945309BE01695F26
:102420007F4FCE0101960E940C0B4EE150E06EE111
:1024300070E0CE0101960E94B30FCE0101960E947A
:102440004509CE0107960E94450960EA71E083C004
:102450000E94E9106CE271E0CE0101960E945309DE
:10246000CE0101960E942010CE0101960E944509DE
:102470008FEF9FEF90930D0580930C051092100540
:102480006DEC71E089E195E00E9417096DEC71E057
:1024900083E195E00E941709109212051092110530
:1024A00080912A0590912B050197049708F05FC051
:1024B0000E94430C5CC065E571E04DC00E94E910CC
:1024C00069E671E0CE0101960E945309CE010196A2
:1024D0000E942010CE0101960E94450989E090E0FB
:1024E000909326058093250542C00E94E91066E777
:1024F00071E0CE0101960E945309CE0101960E941F
:102500002010CE0101960E94450989E395E00E94C2
:10251000011069E871E0CE0107960E945309BE01DF
:10252000695F7F4FCE0101960E940C0B4FE050E097
:102530006EE077E2CE0101960E94B30FCE010196C4
:102540000E944509CE0107960E9445098091290500
:102550000E94AF110CC0CE0101960E945309CE011A
:1025600001960E942010CE0101960E9445092C96EA
:102570000FB6F894DEBF0FBECDBFDF91CF910895A7
:10258000382F20917B0290917A02213208F049C0C5
:10259000809157028111FCCF42E040935702309363
:1025A00056023FEF3093550210925402209353028B
:1025B000AAE5B2E043E352E0FA013E2F341B3217A2
:1025C00018F43D913193F9CF1092320220913202EA
:1025D000990F922B9093320290913102913061F4D5
:1025E00010923102909132029093BB009091BC0006
:1025F00093FDF8CF95EC01C095EE9093BC009091BF
:1026000057029230E1F3909155029F3F79F080910B
:102610005502803241F080915502803331F084E0E0
:1026200005C081E003C082E001C083E0109259023E
:1026300010927B0210925802089581E00C94C0120F
:10264000909157029111FCCF91E0909357024093E3
:1026500056022FEF2093550210925402260F20931A
:1026600053029093320290913202880F892B80930B
:10267000320280913102813061F4109231028091F6
:1026800032028093BB008091BC0083FDF8CF85ECC3
:1026900001C085EE8093BC00809157028130E1F348
:1026A00080915402861710F460915402A3E3B2E0C3
:1026B0002EE235E0F9018E2F821B861718F48D91DA
:1026C0008193F9CF862F0895CF93DF93EC0181E0BA
:1026D0008093580281E180937A02109259021092FD
:1026E0007B0263E08CE792E00E944707BE0175958C
:1026F0006795759567958CE792E00E94470796E08D
:10270000CC0FDD1F9A95E1F76C2F60618CE792E0AA
:102710000E944707DF91CF910C941D131F93CF9315
:10272000DF931F92CDB7DEB7162F91E0909358023A
:1027300091E190937A021092590210927B02682FD5
:102740008CE792E079830E9447077981672F8CE7B5
:1027500092E00E944707612F8CE792E00E944707B2
:102760000F90DF91CF911F910C941D1390E0FC010D
:10277000E958F54F2491FC01EB56F54F84918823DD
:1027800099F090E0880F991FFC01EB5AF34FA59147
:10279000B491FC01E557F54F859194918FB7F8946A
:1027A000EC91E22BEC938FBF08954F925F926F9262
:1027B0007F929F92AF92BF92CF92DF92EF92FF9261
:1027C0000F931F93CF93DF93CDB7DEB7E8970FB684
:1027D000F894DEBF0FBECDBFE0912A05F0912B0526
:1027E000E130F1050CF486C2380179015A01062F57
:1027F0006C01E430F10524F0349709F42AC17AC25F
:1028000063E175E0C9010E94710C882309F470C06E
:1028100089E19BE00E94011040E050E060E070E040
:1028200081EB91E00E94470E21E030E040E050E073
:10283000B701CE0101960E9468098D819E81892B86
:1028400049F067EB71E089819A810E94961F11E03F
:10285000892B09F010E0CE0101960E94450923E082
:1028600030E0112361F040E050E0B701CE01019665
:102870000E94680940E050E066E070E00BC041E073
:1028800050E0B701CE0101960E94680940E050E097
:1028900062E170E0CE0101960E94B30FCE01019675
:1028A0000E9445098091210390912003906C9093A0
:1028B0002003806C8093210325E030E044E050E069
:1028C000B701CE0101960E94680940E050E060E344
:1028D00070E0CE0101960E94B30FCE0101960E94D6
:1028E0004509B70183E195E00E942E0911E001C07E
:1028F00010E080910C0590910D05C816D906A1F144
:102900008CE291E00E94DC0A882371F189EA9AE066
:102910000E94011095E1C916D1040CF08FC1E0E1CD
:10292000CE16D1040CF066C1D7FC1AC080910E05FA
:1029300090910F05F3E0CF16D1040CF06FC1019711
:1029400039F081E090E090930F0580930E0511E03F
:1029500040E050E060E470E089EB91E00E94470EB7
:10296000D0920D05C0920C05809110058017C1F022
:102970008CE291E00E94DC0A882391F089EA9AE0D7
:102980000E940110002309F48AC140E050E06CE489
:1029900070E084E291E00E94470E0093100511E080
:1029A000B30189E195E00E94710C882361F08CE20B
:1029B00091E00E94DC0A882331F0F3018481958143
:1029C000892B09F073C180911105909112058A1528
:1029D0009B05D9F189EA9AE00E9401103FE0E32EBD
:1029E000F12C00E010E00A151B056CF44CE150E0FE
:1029F000B7018EE991E00E94470E0F5F1F4FF4E090
:102A0000EF0EF11CF0CF6501CC0CDD1CCC0CDD1CF5
:102A1000850160E070E07B0124E0E20EF11C0F30E4
:102A2000110574F4615F7F4F6C0D7D1D4CE150E02A
:102A300087EB91E00E94470E0F5F1F4FB701EBCF6E
:102A4000B0921205A0921105CAC0112309F452C117
:102A5000C6C084E690E00E94DC0A882309F44AC1DB
:102A60000D2C000CEE08FF08C701B6010E94B71B31
:102A700026E636E646EE5FE30E947A1C0E94EC1CD6
:102A80006DAB7EAB8FAB98AF8091250590912605FD
:102A90000196909326058093250584359105DCF0F9
:102AA00099E0A92EB12C00E010E0B801C5010E9408
:102AB0008E0D0F5F1F4F04321105B9F73FEFA31AB8
:102AC000B30A44E5A416B10471F789E090E090934D
:102AD00026058093250588E194E00E9401104EE1CF
:102AE00050E060E070E08BEC91E00E94470EC11472
:102AF000D104E104F10421F480E389831A825BC0EC
:102B0000F7FE0BC0F094E094D094C094C11CD11C8B
:102B1000E11CF11C9924939401C0912C8E01045E58
:102B20001F4F58018AE0482E512C612C712CD50181
:102B3000A01BB10BC114D104E104F104D1F0C70111
:102B4000B601A30192010E94361D20E3260FF50174
:102B500021935F01A7019601261B370B480B590BE8
:102B6000CA01B901A30192010E94361D69017A01CF
:102B7000DECFF801EA0FFB1F1082992011F08DE2E1
:102B80008983E92DF0E0CD018E0F9F1FA00FB11FAB
:102B900041E050E04C0F5D1FE40FF51FA017B10797
:102BA00019F02E912193FACFE1E0F0E0EC0FFD1F38
:102BB000E80FF91F10824EE150E060E070E0CE01B6
:102BC00001960E94470E63E270E08DA99EA9681BE2
:102BD000790B80912505909126050E946B0D0E942E
:102BE000320D62E370E080E090E00E9452080E94A3
:102BF0004D0D80C080910E0590910F05039739F01F
:102C000083E090E090930F0580930E0511E040E083
:102C100050E060E470E08DEB91E0A0CE029739F0D7
:102C200082E090E090930F0580930E0511E040E064
:102C300050E060E470E08BEB91E090CE24E2C216AD
:102C4000D104A4F480910E0590910F05049739F0FA
:102C500084E090E090930F0580930E0511E040E032
:102C600050E060E470E08FEB91E078CE30E4C31682
:102C7000D1040CF075CE80910E0590910F0505974B
:102C800039F085E090E090930F0580930E0511E0F8
:102C900040E050E060E470E081EC91E05FCE40E025
:102CA00050E06CE470E086E291E075CE88E194E05B
:102CB0000E94011044E150E06FE070E083EC91E08D
:102CC0000E94470EB301CE0101960E944A0944E1D9
:102CD00050E06FE070E0CE0101960E94B30FCE018C
:102CE00001960E944509B30189E195E00E942E09F1
:102CF00011E069CEE8960FB6F894DEBF0FBECDBFE7
:102D0000DF91CF911F910F91FF90EF90DF90CF90C7
:102D1000BF90AF909F907F906F905F904F9008957D
:102D2000BF92CF92DF92EF92FF920F931F93CF93B8
:102D3000DF93CDB7DEB7AC970FB6F894DEBF0FBE0A
:102D4000CDBF41E06CE080E10E94201310922D0580
:102D500080932C050BE914E08CE792E00E94FB06BF
:102D6000B82E8CE792E00E94FB06DB2CC12C8C0D68
:102D70009D1DF801819391938F01F4E0073A1F079D
:102D800059F70E941D1320919B0430919C04C901A6
:102D900093709093F3048093F20420919E042695FF
:102DA00026952093F4041092F50432FB222720F993
:102DB0002093F6048A599C4F9F938F938EEC91E059
:102DC0009F938F938E010F5F1F4F1F930F930E944E
:102DD000B51F6DEC71E089EF94E00E9417090F9028
:102DE0000F900F900F900F900F90C12CD12CF801E5
:102DF00061918F0189EF94E00E940409FFEFCF1ADF
:102E0000DF0A85E0C816D10469F083E0C816D10452
:102E100071F741E050E064E271E089EF94E00E94D4
:102E2000D608E5CF80919B0490919C0497FFDDC06C
:102E30001092F1041092F00481E08093580281E135
:102E400080937A021092590210927B026CE08CE718
:102E500092E00E94470780E00E94C01241E068E0D3
:102E600081E10E94201310922D0580932C056E01A4
:102E7000EFE1CE0ED11C8E01095D1F4F8CE792E071
:102E80000E94FB06B82E8CE792E00E94FB06FB2C0A
:102E9000E12C8E0D9F1DF601819391936F01E01738
:102EA000F10761F70E941D13E9A1FAA1F3FDB9C072
:102EB0008F2F82958F70E1F0823009F0B2C0EF70F1
:102EC000FF27EE0FFF1FEE0FFF1F8BA19CA1E55602
:102ED000FB4F948B858B8DA19EA1968B878B6DEC80
:102EE00071E085E095E00E9417090FEA14E071C0D7
:102EF000E370FF27EE0FFF1F8DA19EA1E556FB4F4C
:102F0000948785876DEC71E08FEF94E00E9417093C
:102F100027EAE22E24E0F22EF70161917F0180EE94
:102F2000860F8F3528F48FEF94E00E94040908C0C3
:102F300040E050E06DEC71E08FEF94E00E94D60825
:102F4000FFEAEF16F4E0FF0639F729E030E040E051
:102F500050E06FEF74E0C8010E9468098091FF049F
:102F6000909100050097C9F06FA178A561157105D2
:102F700091F040910105509102052BA53CA5421707
:102F8000530748F00E949F1F8BA59CA590930405B2
:102F90008093030518C00E94261E8FA198A59093C8
:102FA00000058093FF0489A59AA59093020580935C
:102FB00001058BA59CA5909304058093030518A695
:102FC0001FA21AA619A61CA61BA6C8010E94450985
:102FD00028C0F80161918F0185E095E00E94040905
:102FE000F4E0093D1F07A9F71CC08091F0049091FF
:102FF000F10401969093F1048093F00485369105D5
:1030000084F064ED71E08FEF94E00E9417096DEC9D
:1030100071E085E095E00E9417091092F10410928A
:10302000F00480E090E0AC960FB6F894DEBF0FBEDF
:10303000CDBFDF91CF911F910F91FF90EF90DF9067
:10304000CF90BF900895CF93DF93CCE0D5E06D8D06
:1030500081E068276D8F82E00E9406088D8DDF91E8
:10306000CF910C94AF110E94E91080912A059091A4
:103070002B050197049710F40E94430C0E94D7116E
:1030800010921205109211050895CF93DF93CDB7DA
:10309000DEB72C970FB6F894DEBF0FBECDBF789485
:1030A00084B5826084BD84B5816084BD85B582604D
:1030B00085BD85B5816085BD80916E0081608093FE
:1030C0006E00109281008091810082608093810067
:1030D0008091810081608093810080918000816077
:1030E000809380008091B10084608093B1008091D2
:1030F000B00081608093B00080917A0084608093FA
:103100007A0080917A00826080937A0080917A00C0
:10311000816080937A0080917A00806880937A0041
:103120001092C10082E00E94B61361E082E00E942A
:10313000060810922D0510922C051092590210923B
:103140007B021092570211E0109356021092310246
:1031500061E082E10E94060861E083E10E940608C6
:103160008091B9008E7F8093B9008091B9008D7FE6
:103170008093B90088E48093B80085E48093BC0014
:103180006DE070EC82E00E948E1368ED74E885E0DB
:103190000E948E136091F7047091F804606D74685A
:1031A00085E00E948E138091F2049091F3040E94B6
:1031B000641380919402E0918C02F0918D029081D1
:1031C000892B808380919302E0918A02F0918B0297
:1031D0009081892B808380919202E0918802F09106
:1031E00089029081892B808380919602E0919002E0
:1031F000F09191029081892B808390919502E091CA
:103200008E02F0918F028081282F30E0892F90E08C
:10321000809590958223932380836AE070E080E01C
:1032200090E00E94520880919502E0918E02F09108
:103230008F029081892B808360E081E20E94CF0C15
:1032400060E086EC0E94CF0C60E086E00E94CF0C2C
:1032500060E083E10E94CF0C60E080E20E94CF0C2E
:1032600060E080E40E94CF0C60E080E80E94CF0C18
:1032700060E08CE00E94CF0C0E94E9100E94320DA9
:1032800010929A02109299021092980486E490E0AB
:1032900090939A0480939904109329050E94E91051
:1032A00060E370E088E690E00E9483100E94320D97
:1032B0006CED75E080E090E00E9452080E94E910F9
:1032C0000E94D71190E4692E20E0E22E20E0F22E39
:1032D0003DECC32ED12CAA24A394B12C5FE0852E03
:1032E000912C7724739460927C0080917A008064A2
:1032F00080937A0080917A0086FDFCCF009178005F
:103300008091790010E0182BC801855F91404797A4
:10331000B0F48CE291E00E947A07882381F08091DA
:103320002A0590912B050196873091050CF46BC00E
:10333000B0922B05A0922A050E94D71109C0023332
:10334000110534F486E990E00E947A07811160C08B
:10335000055912400732110540F586E990E00E94B8
:103360007A07882311F180912A0590912B058230EC
:10337000910509F4C8C00CF0E3C00197B1F4809145
:10338000F7049091F8040196803191050CF0D3C0B8
:103390009093F8048093F7046091F7047091F80417
:1033A000606D746885E00E948E130E9490166FEF26
:1033B00074E0CE0101960E944A0969EF74E0CE01E3
:1033C00007960E944A094091F7045091F8048E0133
:1033D0000F5F1F4F9E01295F3F4F6091F604809160
:1033E000F4049091F5040E94D513CE0107960E9433
:1033F0004509C8010E944509E114F10409F473CF9D
:103400000E9400006ECF90932B0580932A0594CFE5
:1034100080912A0590912B0582309105B9F4809115
:10342000F2049091F304019797FD05C09093F30483
:103430008093F20404C0D092F304C092F20480910D
:10344000F2049091F3040E94641382CF83309105BB
:10345000ECF4019709F07CCF8091F7049091F80487
:10346000019797FD05C09093F8048093F70404C07A
:103470001092F8041092F7046091F7047091F80428
:10348000606D746885E00E948E1362CF8330910571
:1034900069F50E94C80B70920B056DE071EC82E03B
:1034A0000E948E138AE0582E68EC70E080E090E075
:1034B0000E9452080E94901680919B0490919C0457
:1034C00096FF08C093709093F3048093F2041092D7
:1034D0000B0503C05A945110E7CF64EF71E080E010
:1034E00090E00E9452080E94331832CF059709F0ED
:1034F0002FCF82EC91E00E94DC0A882309F428CFC8
:103500000E94231825CF8091F2049091F304019634
:103510008E3C91052CF49093F3048093F20404C044
:103520001092F3041092F2048091F2049091F3044B
:103530000E9464133ACF9092F8048092F7042CCF43
:103540008330910559F50E94C80B70920B056DE010
:1035500073EC82E00E948E131AE068EC70E080E069
:1035600090E00E9452080E94901680919B049091D6
:103570009C0496FF08C093709093F3048093F20428
:1035800010920B0502C0115041F764EF71E080E02A
:1035900090E00E9452080E94331807CF059709F067
:1035A00004CF82EC91E00E94DC0A882309F4FDCE6E
:1035B0000E942318FACE85E095E00E9445098FEF1E
:1035C00094E00E94450989EF94E00E9445098FE14B
:1035D00095E00E94450989E195E00E94450983E153
:1035E00095E00C944509CF93DF93ECE7F2E013826A
:1035F000128288EE93E0A0E0B0E084839583A683F6
:10360000B7838AE091E091838083ECE9FAE0E4916A
:10361000F0E0EE0FFF1FE557F54F85919491C8E854
:10362000D2E099838883EEE7FAE0E491EA87EBE958
:10363000FAE0E491F0E0EE0FFF1FE557F54F8591BA
:1036400094919B838A83EDE7FAE0E491EB87EAE9C2
:10365000FAE0E491F0E0EE0FFF1FE557F54F85919A
:1036600094919D838C83ECE7FAE0E491EC87E9E99F
:10367000FAE0E491F0E0EE0FFF1FE557F54F85917A
:1036800094919F838E83EBE7FAE0E491ED87E8E97C
:10369000FAE0E491F0E0EE0FFF1FE557F54F85915A
:1036A000949199878887EAE7FAE0E491EE8787E0CA
:1036B0000E94B61386E00E94B61385E00E94B613FE
:1036C00084E00E94B61383E00E94B61387E08F87E0
:1036D00084E0888BCCE0D5E01B821A826DEC71E02F
:1036E00083E195E00E9453096DEC71E089E195E07A
:1036F0000E9453096DEC71E08FE195E00E9453093F
:103700001A8E198E1C8E1B8E81E090E09F8F8E8FFB
:103710001092F1041092F00481EC90E09093F30485
:103720008093F2041092F5041092F4041092F604BF
:1037300084E090E09093F8048093F7046DEC71E0DE
:1037400089EF94E00E9453096DEC71E08FEF94E0F3
:103750000E9453096DEC71E085E095E00E945309E9
:1037600010920B05DF91CF910895E89409C097FB63
:103770003EF490958095709561957F4F8F4F9F4F48
:103780009923A9F0F92F96E9BB279395F69587958C
:1037900077956795B795F111F8CFFAF4BB0F11F44F
:1037A00060FF1BC06F5F7F4F8F4F9F4F16C08823F6
:1037B00011F096E911C0772321F09EE8872F762F2C
:1037C00005C0662371F096E8862F70E060E02AF06D
:1037D0009A95660F771F881FDAF7880F9695879559
:1037E00097F9089597F99F6780E870E060E0089581
:1037F0009FEF80EC089500240A9416161706180609
:103800000906089500240A941216130614060506E4
:103810000895092E0394000C11F4882352F0BB0F75
:1038200040F4BF2B11F460FF04C06F5F7F4F8F4FD8
:103830009F4F089557FD9058440F551F59F05F3F13
:1038400071F04795880F97FB991F61F09F3F79F0C2
:1038500087950895121613061406551FF2CF469544
:10386000F1DF08C0161617061806991FF1CF8695C6
:103870007105610508940895E894BB2766277727AA
:10388000CB0197F908952F923F924F925F926F92DA
:103890007F928F929F92AF92BF92CF92DF92EF92E0
:1038A000FF920F931F93CF93DF93CDB7DEB7CA1B61
:1038B000DB0B0FB6F894DEBF0FBECDBF09942A888C
:1038C000398848885F846E847D848C849B84AA8434
:1038D000B984C884DF80EE80FD800C811B81AA81C1
:1038E000B981CE0FD11D0FB6F894DEBF0FBECDBF8C
:1038F000ED0108950E948E1C0C94091C0E94021C6C
:1039000058F00E94FB1B40F029F45F3F29F00C9413
:10391000F21B51110C943D1C0C94F81B0E941A1CB4
:1039200068F39923B1F3552391F3951B550BBB27EE
:10393000AA2762177307840738F09F5F5F4F220F33
:10394000331F441FAA1FA9F335D00E2E3AF0E0E82A
:1039500032D091505040E695001CCAF72BD0FE2F74
:1039600029D0660F771F881FBB1F26173707480708
:10397000AB07B0E809F0BB0B802DBF01FF279358C0
:103980005F4F3AF09E3F510578F00C94F21B0C9477
:103990003D1C5F3FE4F3983ED4F386957795679599
:1039A000B795F7959F5FC9F7880F911D96958795F5
:1039B00097F90895E1E0660F771F881FBB1F621714
:1039C00073078407BA0720F0621B730B840BBA0BD2
:1039D000EE1F88F7E09508950E94F31C6894B111DA
:1039E0000C943D1C08950E94221C88F09F5798F06B
:1039F000B92F9927B751B0F0E1F0660F771F881FF4
:103A0000991F1AF0BA95C9F714C0B13091F00E940D
:103A10003C1CB1E008950C943C1C672F782F88273C
:103A2000B85F39F0B93FCCF3869577956795B39534
:103A3000D9F73EF490958095709561957F4F8F4FA3
:103A40009F4F089597FB072E16F4009407D077FD3B
:103A500009D00E94551D07FC05D03EF49095819534
:103A60009F4F0895709561957F4F0895052E97FBA0
:103A70001EF400940E944D1D57FD07D00E94691D41
:103A800007FC03D04EF40C944D1D50954095309595
:103A900021953F4F4F4F5F4F0895909580957095BA
:103AA00061957F4F8F4F9F4F0895AA1BBB1B51E11C
:103AB00007C0AA1FBB1FA617B70710F0A61BB70B9E
:103AC000881F991F5A95A9F780959095BC01CD0143
:103AD0000895A1E21A2EAA1BBB1BFD010DC0AA1F4F
:103AE000BB1FEE1FFF1FA217B307E407F50720F067
:103AF000A21BB30BE40BF50B661F771F881F991FE2
:103B00001A9469F760957095809590959B01AC012A
:103B1000BD01CF010895EE0FFF1F0590F491E02D38
:103B20000994CF93DF938230910510F482E090E006
:103B3000E0915005F091510520E030E0C0E0D0E088
:103B4000309711F14081518148175907C0F048174B
:103B5000590761F482819381209719F09B838A83AE
:103B60002BC0909351058093500526C02115310537
:103B700019F04217530718F49A01BE01DF01EF0153
:103B80000280F381E02DDCCF2115310509F1281BDE
:103B9000390B2430310590F412968D919C91139736
:103BA0006115710521F0FB019383828304C090931A
:103BB000510580935005FD01329644C0FD01E20F8E
:103BC000F31F81939193225031092D933C933AC076
:103BD00020914E0530914F05232B41F42091020195
:103BE0003091030130934F0520934E052091000141
:103BF000309101012115310541F42DB73EB74091B7
:103C0000040150910501241B350BE0914E05F09104
:103C10004F05E217F307A0F42E1B3F0B28173907B7
:103C200078F0AC014E5F5F4F2417350748F04E0F18
:103C30005F1F50934F0540934E058193919302C0AF
:103C4000E0E0F0E0CF01DF91CF9108950F931F9353
:103C5000CF93DF93009709F48CC0FC013297138255
:103C6000128200915005109151050115110581F442
:103C700020813181820F931F20914E0530914F0595
:103C80002817390779F5F0934F05E0934E0571C079
:103C9000D80140E050E0AE17BF0750F412962D91C6
:103CA0003C911397AD012115310509F1D901F3CFED
:103CB0009D01DA013383228360817181860F971F12
:103CC0008217930769F4EC0128813981260F371F89
:103CD0002E5F3F4F318320838A819B819383828330
:103CE000452B29F4F0935105E093500542C01396FB
:103CF000FC93EE931297ED01499159919E01240F87
:103D0000351FE217F30771F480819181840F951FAD
:103D1000029611969C938E938281938113969C9325
:103D20008E931297E0E0F0E0D80112968D919C916D
:103D30001397009719F0F8018C01F6CF8D919C91A3
:103D400098012E5F3F4F820F931F20914E053091B7
:103D50004F052817390769F4309729F41092510557
:103D60001092500502C01382128210934F050093E7
:103D70004E05DF91CF911F910F910895A0E0B0E023
:103D8000E4ECFEE10C94471CEC01009721F4CB011C
:103D90000E94911DB8C0FC01E60FF71F9C01225044
:103DA0003109E217F30708F4ACC0D9010D911C9159
:103DB000119706171707B0F00530110508F49FC0DA
:103DC000C80104978617970708F499C00250110993
:103DD000061B170B019311936D937C93CF010E94E7
:103DE000261E8DC05B01A01AB10A4C01800E911EE7
:103DF000A0915005B091510540E050E0E12CF12C2C
:103E0000109709F44AC0A815B905D1F56D907C90BA
:103E10001197630182E0C80ED11CCA14DB0480F143
:103E2000A3014A195B096A0182E0C80ED11C1296EF
:103E3000BC9012971396AC91B5E0CB16D10440F02C
:103E4000B282A38351834083D9016D937C930AC0CE
:103E50000E5F1F4FC301800F911FF9019183808373
:103E6000EB2DFA2FE114F10431F0D7011396FC93F6
:103E7000EE93129744C0F0935105E09350053FC074
:103E80008D919C9111974817590708F4AC017D0159
:103E900012960D90BC91A02DB3CF80914E059091BC
:103EA0004F0588159905E1F446175707C8F4809126
:103EB000000190910101009741F48DB79EB74091A8
:103EC000040150910501841B950BE817F907C8F40C
:103ED000F0934F05E0934E05F901718360830FC0A5
:103EE000CB010E94911D7C01009759F0A801BE01F1
:103EF0000E948D1FCE010E94261EC70104C0CE0164
:103F000002C080E090E0CDB7DEB7EEE00C94631C19
:103F100081E090E0F8940C945622FB01DC0102C091
:103F200001900D9241505040D8F70895FB01DC01FB
:103F30008D91019080190110D9F3990B0895FB011F
:103F4000DC0101900D920020E1F70895FB01DC01F6
:103F50004150504048F001900D920020C9F701C037
:103F60001D9241505040E0F70895AEE0B0E0EBEB19
:103F7000FFE10C94511C0D891E8986E08C831A8305
:103F800009838FEF9FE79E838D83AE01475E5F4F6E
:103F90006F89788DCE0101960E94D81F2F813885B8
:103FA000F801E20FF31F10822E96E4E00C946D1CD2
:103FB000ACE0B0E0EEEDFFE10C94431C7C016B0142
:103FC0008A01FC0117821682838181FFBDC1CE0167
:103FD00001964C01F7019381F60193FD859193FFC2
:103FE00081916F01882309F4ABC1853239F493FDC7
:103FF000859193FF81916F01853229F4B70190E09B
:104000000E94C021E7CF512C312C20E02032A0F4B7
:104010008B3269F030F4803259F0833269F42061D8
:104020002CC08D3239F0803339F4216026C02260F3
:10403000246023C0286021C027FD27C030ED380F41
:104040003A3078F426FF06C0FAE05F9E300D112466
:10405000532E13C08AE0389E300D1124332E206277
:104060000CC08E3221F426FD6BC1206406C08C3654
:1040700011F4206802C0883641F4F60193FD859161
:1040800093FF81916F018111C1CF982F9F7D95542E
:10409000933028F40C5F1F4FFFE3F9830DC0833684
:1040A00031F0833771F0833509F05BC022C0F8012D
:1040B000808189830E5F1F4F44244394512C540107
:1040C00015C03801F2E06F0E711CF801A080B180BC
:1040D00026FF03C0652D70E002C06FEF7FEFC501C2
:1040E0002C870E94B5212C0183012C852F77222E4D
:1040F00017C03801F2E06F0E711CF801A080B1808A
:1041000026FF03C0652D70E002C06FEF7FEFC50191
:104110002C870E94AA212C012C852068222E830145
:1041200023FC1BC0832D90E048165906B0F4B7015C
:1041300080E290E00E94C0213A94F4CFF50127FC80
:10414000859127FE81915F01B70190E00E94C02117
:1041500031103A94F1E04F1A51084114510471F7AB
:10416000E5C0843611F0893639F5F80127FF07C01C
:1041700060817181828193810C5F1F4F08C06081D3
:104180007181072E000C880B990B0E5F1F4F2F7645
:10419000722E97FF09C090958095709561957F4F1D
:1041A0008F4F9F4F2068722E2AE030E0A4010E94BA
:1041B000F821A82EA81844C0853729F42F7EB22EE6
:1041C0002AE030E025C0F22FF97FBF2E8F36C1F0F4
:1041D00018F4883579F0B4C0803719F0883721F0A9
:1041E000AFC02F2F2061B22EB4FE0DC08B2D846086
:1041F000B82E09C024FF0AC09F2F9660B92E06C0B2
:1042000028E030E005C020E130E002C020E132E0EB
:10421000F801B7FE07C060817181828193810C5FD4
:104220001F4F06C06081718180E090E00E5F1F4FDC
:10423000A4010E94F821A82EA818FB2DFF777F2E3D
:1042400076FE0BC0372D3E7FA51450F474FE0AC0D5
:1042500072FC08C0372D3E7E05C0BA2C372D03C036
:10426000BA2C01C0B52C34FF0DC0FE01EA0DF11DC2
:104270008081803311F4397E09C032FF06C0B394C7
:10428000B39404C0832F867809F0B39433FD13C030
:1042900030FF06C05A2CB31418F4530C5B18B32C1F
:1042A000B31468F4B70180E290E03C870E94C0211B
:1042B000B3943C85F5CFB31410F43B1801C0312CF6
:1042C00034FF12C0B70180E390E03C870E94C02118
:1042D0003C8532FF17C031FD03C088E790E002C083
:1042E00088E590E0B7010CC0832F867859F031FF44
:1042F00002C08BE201C080E237FD8DE2B70190E0A1
:104300000E94C021A51438F4B70180E390E00E9418
:10431000C0215A94F7CFAA94F401EA0DF11D8081CF
:10432000B70190E00E94C021A110F5CF332009F41D
:1043300051CEB70180E290E00E94C0213A94F6CFBE
:10434000F7018681978102C08FEF9FEF2C96E2E103
:104350000C945F1CFC010590615070400110D8F76F
:10436000809590958E0F9F1F0895FC0161507040BD
:1043700001900110D8F7809590958E0F9F1F08959A
:104380000F931F93CF93DF93FB01238121FD03C084
:104390008FEF9FEF28C022FF16C0468157812481EE
:1043A00035814217530744F4A081B1819D012F5FED
:1043B0003F4F318320838C93268137812F5F3F4F7E
:1043C0003783268310C0EB01092F182F0084F18555
:1043D000E02D0995892BE1F68E819F8101969F83BF
:1043E0008E83812F902FDF91CF911F910F91089590
:1043F000FA01AA27283051F1203181F1E8946F9316
:104400006E7F6E5F7F4F8F4F9F4FAF4FB1E03ED0BB
:10441000B4E03CD0670F781F891F9A1FA11D680F59
:10442000791F8A1F911DA11D6A0F711D811D911D8C
:10443000A11D20D009F468943F912AE0269F112401
:104440003019305D3193DEF6CF010895462F477065
:10445000405D4193B3E00FD0C9F7F6CF462F4F70C0
:10446000405D4A3318F0495D31FD4052419302D01E
:10447000A9F7EACFB4E0A6959795879577956795C4
:10448000BA95C9F700976105710508959B01AC01C4
:104490000A2E06945795479537952795BA95C9F7EB
:1044A000620F731F841F951FA01D089516E0C1E3BE
:1044B000D6E004C0FE010E948B1D2196C233D107B5
:0644C000C9F7F894FFCFDC
:1044C6000000520580000000000047071707770725
:1044D600EB060F07FB06EC06D09FD0BED0B8D18105
:1044E600D0BA2E2E2E002D0032002C00D093D18073
:1044F600D0BED0BCD0BAD0BED181D182D18C00D0B2
:10450600A0D183D187D0BD2E20D0BDD0B0D181D14E
:1045160082D1802E00D090D0B2D182D0BED0BDD074
:10452600B0D181D182D1802E00D0A1D0B8D0B3D065
:10453600BDD0B0D0BB00D09FD0BED0B4D181D0B258
:10454600D0B5D182D0BAD0B000D092D0BAD0BB2EDE
:1045560020D092D18BD0BAD0BB2E00322E30300074
:10456600D09FD180D0BED188D0B8D0B2D0BAD0B08A
:10457600002F2F2F2F2F0031002700280029002A77
:10458600002B002020202020202020202000253065
:0845960034642000524453007C
:00000001FF
